{
  "_format": "hh-sol-artifact-1",
  "contractName": "MultiSignatureWallet",
  "sourceName": "contracts/Multi-Sig.sol",
  "abi": [
    {
      "inputs": [
        {
          "internalType": "address[]",
          "name": "_owners",
          "type": "address[]"
        },
        {
          "internalType": "uint256",
          "name": "_required",
          "type": "uint256"
        }
      ],
      "stateMutability": "nonpayable",
      "type": "constructor"
    },
    {
      "inputs": [],
      "name": "ReentrancyGuardReentrantCall",
      "type": "error"
    },
    {
      "anonymous": false,
      "inputs": [
        {
          "indexed": false,
          "internalType": "uint256[]",
          "name": "transactionIds",
          "type": "uint256[]"
        },
        {
          "indexed": false,
          "internalType": "uint256",
          "name": "successCount",
          "type": "uint256"
        },
        {
          "indexed": true,
          "internalType": "address",
          "name": "executedBy",
          "type": "address"
        },
        {
          "indexed": false,
          "internalType": "uint256",
          "name": "timestamp",
          "type": "uint256"
        }
      ],
      "name": "BatchExecution",
      "type": "event"
    },
    {
      "anonymous": false,
      "inputs": [
        {
          "indexed": true,
          "internalType": "uint256",
          "name": "transactionId",
          "type": "uint256"
        },
        {
          "indexed": true,
          "internalType": "address",
          "name": "owner",
          "type": "address"
        },
        {
          "indexed": false,
          "internalType": "uint256",
          "name": "confirmationCount",
          "type": "uint256"
        },
        {
          "indexed": false,
          "internalType": "uint256",
          "name": "timestamp",
          "type": "uint256"
        }
      ],
      "name": "Confirmation",
      "type": "event"
    },
    {
      "anonymous": false,
      "inputs": [
        {
          "indexed": true,
          "internalType": "address",
          "name": "sender",
          "type": "address"
        },
        {
          "indexed": false,
          "internalType": "uint256",
          "name": "value",
          "type": "uint256"
        },
        {
          "indexed": false,
          "internalType": "uint256",
          "name": "timestamp",
          "type": "uint256"
        }
      ],
      "name": "Deposit",
      "type": "event"
    },
    {
      "anonymous": false,
      "inputs": [
        {
          "indexed": false,
          "internalType": "address[]",
          "name": "newOwners",
          "type": "address[]"
        },
        {
          "indexed": false,
          "internalType": "uint256",
          "name": "newRequired",
          "type": "uint256"
        },
        {
          "indexed": true,
          "internalType": "address",
          "name": "triggeredBy",
          "type": "address"
        },
        {
          "indexed": false,
          "internalType": "uint256",
          "name": "timestamp",
          "type": "uint256"
        }
      ],
      "name": "EmergencyRecovery",
      "type": "event"
    },
    {
      "anonymous": false,
      "inputs": [
        {
          "indexed": true,
          "internalType": "uint256",
          "name": "transactionId",
          "type": "uint256"
        },
        {
          "indexed": true,
          "internalType": "address",
          "name": "destination",
          "type": "address"
        },
        {
          "indexed": false,
          "internalType": "uint256",
          "name": "value",
          "type": "uint256"
        },
        {
          "indexed": true,
          "internalType": "bool",
          "name": "success",
          "type": "bool"
        },
        {
          "indexed": false,
          "internalType": "bytes",
          "name": "returnData",
          "type": "bytes"
        },
        {
          "indexed": false,
          "internalType": "address",
          "name": "executedBy",
          "type": "address"
        },
        {
          "indexed": false,
          "internalType": "uint256",
          "name": "gasUsed",
          "type": "uint256"
        },
        {
          "indexed": false,
          "internalType": "uint256",
          "name": "timestamp",
          "type": "uint256"
        }
      ],
      "name": "Execution",
      "type": "event"
    },
    {
      "anonymous": false,
      "inputs": [
        {
          "indexed": true,
          "internalType": "uint256",
          "name": "transactionId",
          "type": "uint256"
        },
        {
          "indexed": true,
          "internalType": "address",
          "name": "destination",
          "type": "address"
        },
        {
          "indexed": false,
          "internalType": "uint256",
          "name": "value",
          "type": "uint256"
        },
        {
          "indexed": false,
          "internalType": "bytes",
          "name": "reason",
          "type": "bytes"
        },
        {
          "indexed": false,
          "internalType": "address",
          "name": "attemptedBy",
          "type": "address"
        },
        {
          "indexed": false,
          "internalType": "uint256",
          "name": "timestamp",
          "type": "uint256"
        }
      ],
      "name": "ExecutionFailure",
      "type": "event"
    },
    {
      "anonymous": false,
      "inputs": [
        {
          "indexed": true,
          "internalType": "address",
          "name": "guardian",
          "type": "address"
        },
        {
          "indexed": true,
          "internalType": "address",
          "name": "addedBy",
          "type": "address"
        },
        {
          "indexed": false,
          "internalType": "uint256",
          "name": "timestamp",
          "type": "uint256"
        }
      ],
      "name": "GuardianAdded",
      "type": "event"
    },
    {
      "anonymous": false,
      "inputs": [
        {
          "indexed": true,
          "internalType": "address",
          "name": "guardian",
          "type": "address"
        },
        {
          "indexed": true,
          "internalType": "address",
          "name": "removedBy",
          "type": "address"
        },
        {
          "indexed": false,
          "internalType": "uint256",
          "name": "timestamp",
          "type": "uint256"
        }
      ],
      "name": "GuardianRemoved",
      "type": "event"
    },
    {
      "anonymous": false,
      "inputs": [
        {
          "indexed": true,
          "internalType": "address",
          "name": "addedOwner",
          "type": "address"
        },
        {
          "indexed": true,
          "internalType": "address",
          "name": "addedBy",
          "type": "address"
        },
        {
          "indexed": false,
          "internalType": "uint256",
          "name": "timestamp",
          "type": "uint256"
        }
      ],
      "name": "OwnerAddition",
      "type": "event"
    },
    {
      "anonymous": false,
      "inputs": [
        {
          "indexed": true,
          "internalType": "address",
          "name": "removedOwner",
          "type": "address"
        },
        {
          "indexed": true,
          "internalType": "address",
          "name": "removedBy",
          "type": "address"
        },
        {
          "indexed": false,
          "internalType": "uint256",
          "name": "timestamp",
          "type": "uint256"
        }
      ],
      "name": "OwnerRemoval",
      "type": "event"
    },
    {
      "anonymous": false,
      "inputs": [
        {
          "indexed": true,
          "internalType": "address",
          "name": "previousOwner",
          "type": "address"
        },
        {
          "indexed": true,
          "internalType": "address",
          "name": "newOwner",
          "type": "address"
        },
        {
          "indexed": true,
          "internalType": "address",
          "name": "replacedBy",
          "type": "address"
        },
        {
          "indexed": false,
          "internalType": "uint256",
          "name": "timestamp",
          "type": "uint256"
        }
      ],
      "name": "OwnerReplacement",
      "type": "event"
    },
    {
      "anonymous": false,
      "inputs": [
        {
          "indexed": true,
          "internalType": "bool",
          "name": "paused",
          "type": "bool"
        },
        {
          "indexed": true,
          "internalType": "address",
          "name": "changedBy",
          "type": "address"
        },
        {
          "indexed": false,
          "internalType": "uint256",
          "name": "timestamp",
          "type": "uint256"
        }
      ],
      "name": "PauseStateChanged",
      "type": "event"
    },
    {
      "anonymous": false,
      "inputs": [
        {
          "indexed": true,
          "internalType": "uint256",
          "name": "previousRequired",
          "type": "uint256"
        },
        {
          "indexed": true,
          "internalType": "uint256",
          "name": "newRequired",
          "type": "uint256"
        },
        {
          "indexed": true,
          "internalType": "address",
          "name": "changedBy",
          "type": "address"
        },
        {
          "indexed": false,
          "internalType": "uint256",
          "name": "timestamp",
          "type": "uint256"
        }
      ],
      "name": "RequirementChange",
      "type": "event"
    },
    {
      "anonymous": false,
      "inputs": [
        {
          "indexed": true,
          "internalType": "uint256",
          "name": "transactionId",
          "type": "uint256"
        },
        {
          "indexed": true,
          "internalType": "address",
          "name": "owner",
          "type": "address"
        },
        {
          "indexed": false,
          "internalType": "uint256",
          "name": "confirmationCount",
          "type": "uint256"
        },
        {
          "indexed": false,
          "internalType": "uint256",
          "name": "timestamp",
          "type": "uint256"
        }
      ],
      "name": "Revocation",
      "type": "event"
    },
    {
      "anonymous": false,
      "inputs": [
        {
          "indexed": true,
          "internalType": "uint256",
          "name": "transactionId",
          "type": "uint256"
        },
        {
          "indexed": true,
          "internalType": "address",
          "name": "destination",
          "type": "address"
        },
        {
          "indexed": false,
          "internalType": "uint256",
          "name": "value",
          "type": "uint256"
        },
        {
          "indexed": false,
          "internalType": "bytes",
          "name": "data",
          "type": "bytes"
        },
        {
          "indexed": true,
          "internalType": "address",
          "name": "submittedBy",
          "type": "address"
        },
        {
          "indexed": false,
          "internalType": "uint256",
          "name": "timestamp",
          "type": "uint256"
        }
      ],
      "name": "Submission",
      "type": "event"
    },
    {
      "anonymous": false,
      "inputs": [
        {
          "indexed": false,
          "internalType": "uint256",
          "name": "oldPeriod",
          "type": "uint256"
        },
        {
          "indexed": false,
          "internalType": "uint256",
          "name": "newPeriod",
          "type": "uint256"
        },
        {
          "indexed": false,
          "internalType": "address",
          "name": "changedBy",
          "type": "address"
        },
        {
          "indexed": false,
          "internalType": "uint256",
          "name": "timestamp",
          "type": "uint256"
        }
      ],
      "name": "TimeLockPeriodChanged",
      "type": "event"
    },
    {
      "stateMutability": "payable",
      "type": "fallback"
    },
    {
      "inputs": [],
      "name": "MAX_OWNER_COUNT",
      "outputs": [
        {
          "internalType": "uint256",
          "name": "",
          "type": "uint256"
        }
      ],
      "stateMutability": "view",
      "type": "function"
    },
    {
      "inputs": [
        {
          "internalType": "address",
          "name": "guardian",
          "type": "address"
        }
      ],
      "name": "addGuardian",
      "outputs": [],
      "stateMutability": "nonpayable",
      "type": "function"
    },
    {
      "inputs": [
        {
          "internalType": "address",
          "name": "newOwner",
          "type": "address"
        }
      ],
      "name": "addOwner",
      "outputs": [],
      "stateMutability": "nonpayable",
      "type": "function"
    },
    {
      "inputs": [
        {
          "internalType": "uint256[]",
          "name": "_transactionIds",
          "type": "uint256[]"
        }
      ],
      "name": "batchConfirmation",
      "outputs": [],
      "stateMutability": "nonpayable",
      "type": "function"
    },
    {
      "inputs": [
        {
          "internalType": "uint256[]",
          "name": "_transactionIds",
          "type": "uint256[]"
        }
      ],
      "name": "batchExecution",
      "outputs": [],
      "stateMutability": "nonpayable",
      "type": "function"
    },
    {
      "inputs": [
        {
          "internalType": "uint256",
          "name": "_required",
          "type": "uint256"
        }
      ],
      "name": "changeRequirement",
      "outputs": [],
      "stateMutability": "nonpayable",
      "type": "function"
    },
    {
      "inputs": [
        {
          "internalType": "uint256",
          "name": "_transactionId",
          "type": "uint256"
        }
      ],
      "name": "confirmTransaction",
      "outputs": [],
      "stateMutability": "nonpayable",
      "type": "function"
    },
    {
      "inputs": [
        {
          "internalType": "uint256",
          "name": "",
          "type": "uint256"
        }
      ],
      "name": "confirmationCount",
      "outputs": [
        {
          "internalType": "uint256",
          "name": "",
          "type": "uint256"
        }
      ],
      "stateMutability": "view",
      "type": "function"
    },
    {
      "inputs": [
        {
          "internalType": "uint256",
          "name": "",
          "type": "uint256"
        },
        {
          "internalType": "address",
          "name": "",
          "type": "address"
        }
      ],
      "name": "confirmations",
      "outputs": [
        {
          "internalType": "bool",
          "name": "",
          "type": "bool"
        }
      ],
      "stateMutability": "view",
      "type": "function"
    },
    {
      "inputs": [],
      "name": "dailyLimit",
      "outputs": [
        {
          "internalType": "uint256",
          "name": "",
          "type": "uint256"
        }
      ],
      "stateMutability": "view",
      "type": "function"
    },
    {
      "inputs": [],
      "name": "dailySpent",
      "outputs": [
        {
          "internalType": "uint256",
          "name": "",
          "type": "uint256"
        }
      ],
      "stateMutability": "view",
      "type": "function"
    },
    {
      "inputs": [
        {
          "internalType": "address[]",
          "name": "newOwners",
          "type": "address[]"
        },
        {
          "internalType": "uint256",
          "name": "newRequired",
          "type": "uint256"
        }
      ],
      "name": "emergencyRecover",
      "outputs": [],
      "stateMutability": "nonpayable",
      "type": "function"
    },
    {
      "inputs": [
        {
          "internalType": "uint256",
          "name": "_transactionId",
          "type": "uint256"
        }
      ],
      "name": "executeTransaction",
      "outputs": [],
      "stateMutability": "nonpayable",
      "type": "function"
    },
    {
      "inputs": [
        {
          "internalType": "uint256",
          "name": "transactionId",
          "type": "uint256"
        }
      ],
      "name": "getConfirmationCount",
      "outputs": [
        {
          "internalType": "uint256",
          "name": "",
          "type": "uint256"
        }
      ],
      "stateMutability": "view",
      "type": "function"
    },
    {
      "inputs": [
        {
          "internalType": "uint256",
          "name": "transactionId",
          "type": "uint256"
        }
      ],
      "name": "getConfirmations",
      "outputs": [
        {
          "internalType": "address[]",
          "name": "_confirmations",
          "type": "address[]"
        }
      ],
      "stateMutability": "view",
      "type": "function"
    },
    {
      "inputs": [],
      "name": "getGuardians",
      "outputs": [
        {
          "internalType": "address[]",
          "name": "",
          "type": "address[]"
        }
      ],
      "stateMutability": "view",
      "type": "function"
    },
    {
      "inputs": [],
      "name": "getOwners",
      "outputs": [
        {
          "internalType": "address[]",
          "name": "",
          "type": "address[]"
        }
      ],
      "stateMutability": "view",
      "type": "function"
    },
    {
      "inputs": [
        {
          "internalType": "uint256",
          "name": "transactionId",
          "type": "uint256"
        }
      ],
      "name": "getTransaction",
      "outputs": [
        {
          "internalType": "address",
          "name": "destination",
          "type": "address"
        },
        {
          "internalType": "uint256",
          "name": "value",
          "type": "uint256"
        },
        {
          "internalType": "bytes",
          "name": "data",
          "type": "bytes"
        },
        {
          "internalType": "bool",
          "name": "executed",
          "type": "bool"
        }
      ],
      "stateMutability": "view",
      "type": "function"
    },
    {
      "inputs": [
        {
          "internalType": "bool",
          "name": "pending",
          "type": "bool"
        },
        {
          "internalType": "bool",
          "name": "executed",
          "type": "bool"
        }
      ],
      "name": "getTransactionCount",
      "outputs": [
        {
          "internalType": "uint256",
          "name": "count",
          "type": "uint256"
        }
      ],
      "stateMutability": "view",
      "type": "function"
    },
    {
      "inputs": [
        {
          "internalType": "uint256",
          "name": "from",
          "type": "uint256"
        },
        {
          "internalType": "uint256",
          "name": "to",
          "type": "uint256"
        },
        {
          "internalType": "bool",
          "name": "pending",
          "type": "bool"
        },
        {
          "internalType": "bool",
          "name": "executed",
          "type": "bool"
        }
      ],
      "name": "getTransactionIds",
      "outputs": [
        {
          "internalType": "uint256[]",
          "name": "_transactionIds",
          "type": "uint256[]"
        }
      ],
      "stateMutability": "view",
      "type": "function"
    },
    {
      "inputs": [],
      "name": "guardianUnpause",
      "outputs": [],
      "stateMutability": "nonpayable",
      "type": "function"
    },
    {
      "inputs": [
        {
          "internalType": "uint256",
          "name": "",
          "type": "uint256"
        }
      ],
      "name": "guardians",
      "outputs": [
        {
          "internalType": "address",
          "name": "",
          "type": "address"
        }
      ],
      "stateMutability": "view",
      "type": "function"
    },
    {
      "inputs": [
        {
          "internalType": "uint256",
          "name": "_transactionId",
          "type": "uint256"
        }
      ],
      "name": "isConfirmed",
      "outputs": [
        {
          "internalType": "bool",
          "name": "",
          "type": "bool"
        }
      ],
      "stateMutability": "view",
      "type": "function"
    },
    {
      "inputs": [
        {
          "internalType": "address",
          "name": "",
          "type": "address"
        }
      ],
      "name": "isGuardian",
      "outputs": [
        {
          "internalType": "bool",
          "name": "",
          "type": "bool"
        }
      ],
      "stateMutability": "view",
      "type": "function"
    },
    {
      "inputs": [
        {
          "internalType": "address",
          "name": "",
          "type": "address"
        }
      ],
      "name": "isOwner",
      "outputs": [
        {
          "internalType": "bool",
          "name": "",
          "type": "bool"
        }
      ],
      "stateMutability": "view",
      "type": "function"
    },
    {
      "inputs": [],
      "name": "lastDailyReset",
      "outputs": [
        {
          "internalType": "uint256",
          "name": "",
          "type": "uint256"
        }
      ],
      "stateMutability": "view",
      "type": "function"
    },
    {
      "inputs": [],
      "name": "lastWeeklyReset",
      "outputs": [
        {
          "internalType": "uint256",
          "name": "",
          "type": "uint256"
        }
      ],
      "stateMutability": "view",
      "type": "function"
    },
    {
      "inputs": [],
      "name": "nonce",
      "outputs": [
        {
          "internalType": "uint256",
          "name": "",
          "type": "uint256"
        }
      ],
      "stateMutability": "view",
      "type": "function"
    },
    {
      "inputs": [
        {
          "internalType": "uint256",
          "name": "",
          "type": "uint256"
        }
      ],
      "name": "owners",
      "outputs": [
        {
          "internalType": "address",
          "name": "",
          "type": "address"
        }
      ],
      "stateMutability": "view",
      "type": "function"
    },
    {
      "inputs": [],
      "name": "pause",
      "outputs": [],
      "stateMutability": "nonpayable",
      "type": "function"
    },
    {
      "inputs": [],
      "name": "paused",
      "outputs": [
        {
          "internalType": "bool",
          "name": "",
          "type": "bool"
        }
      ],
      "stateMutability": "view",
      "type": "function"
    },
    {
      "inputs": [
        {
          "internalType": "address",
          "name": "guardian",
          "type": "address"
        }
      ],
      "name": "removeGuardian",
      "outputs": [],
      "stateMutability": "nonpayable",
      "type": "function"
    },
    {
      "inputs": [
        {
          "internalType": "address",
          "name": "ownerToRemove",
          "type": "address"
        }
      ],
      "name": "removeOwner",
      "outputs": [],
      "stateMutability": "nonpayable",
      "type": "function"
    },
    {
      "inputs": [
        {
          "internalType": "address",
          "name": "ownerToReplace",
          "type": "address"
        },
        {
          "internalType": "address",
          "name": "newOwner",
          "type": "address"
        }
      ],
      "name": "replaceOwner",
      "outputs": [],
      "stateMutability": "nonpayable",
      "type": "function"
    },
    {
      "inputs": [],
      "name": "required",
      "outputs": [
        {
          "internalType": "uint256",
          "name": "",
          "type": "uint256"
        }
      ],
      "stateMutability": "view",
      "type": "function"
    },
    {
      "inputs": [
        {
          "internalType": "uint256",
          "name": "_transactionId",
          "type": "uint256"
        }
      ],
      "name": "revokeConfirmation",
      "outputs": [],
      "stateMutability": "nonpayable",
      "type": "function"
    },
    {
      "inputs": [
        {
          "internalType": "uint256",
          "name": "_limit",
          "type": "uint256"
        }
      ],
      "name": "setDailyLimit",
      "outputs": [],
      "stateMutability": "nonpayable",
      "type": "function"
    },
    {
      "inputs": [
        {
          "internalType": "uint256",
          "name": "_period",
          "type": "uint256"
        }
      ],
      "name": "setTimeLockPeriod",
      "outputs": [],
      "stateMutability": "nonpayable",
      "type": "function"
    },
    {
      "inputs": [
        {
          "internalType": "uint256",
          "name": "_limit",
          "type": "uint256"
        }
      ],
      "name": "setWeeklyLimit",
      "outputs": [],
      "stateMutability": "nonpayable",
      "type": "function"
    },
    {
      "inputs": [
        {
          "internalType": "address",
          "name": "_destination",
          "type": "address"
        },
        {
          "internalType": "uint256",
          "name": "_value",
          "type": "uint256"
        },
        {
          "internalType": "bytes",
          "name": "_data",
          "type": "bytes"
        }
      ],
      "name": "submitTransaction",
      "outputs": [
        {
          "internalType": "uint256",
          "name": "transactionId",
          "type": "uint256"
        }
      ],
      "stateMutability": "nonpayable",
      "type": "function"
    },
    {
      "inputs": [],
      "name": "timeLockPeriod",
      "outputs": [
        {
          "internalType": "uint256",
          "name": "",
          "type": "uint256"
        }
      ],
      "stateMutability": "view",
      "type": "function"
    },
    {
      "inputs": [],
      "name": "transactionCount",
      "outputs": [
        {
          "internalType": "uint256",
          "name": "",
          "type": "uint256"
        }
      ],
      "stateMutability": "view",
      "type": "function"
    },
    {
      "inputs": [
        {
          "internalType": "uint256",
          "name": "",
          "type": "uint256"
        }
      ],
      "name": "transactionIds",
      "outputs": [
        {
          "internalType": "uint256",
          "name": "",
          "type": "uint256"
        }
      ],
      "stateMutability": "view",
      "type": "function"
    },
    {
      "inputs": [
        {
          "internalType": "uint256",
          "name": "",
          "type": "uint256"
        }
      ],
      "name": "transactions",
      "outputs": [
        {
          "internalType": "address",
          "name": "destination",
          "type": "address"
        },
        {
          "internalType": "uint256",
          "name": "value",
          "type": "uint256"
        },
        {
          "internalType": "bytes",
          "name": "data",
          "type": "bytes"
        },
        {
          "internalType": "bool",
          "name": "executed",
          "type": "bool"
        },
        {
          "internalType": "uint256",
          "name": "timestamp",
          "type": "uint256"
        }
      ],
      "stateMutability": "view",
      "type": "function"
    },
    {
      "inputs": [],
      "name": "unpause",
      "outputs": [],
      "stateMutability": "nonpayable",
      "type": "function"
    },
    {
      "inputs": [],
      "name": "weeklyLimit",
      "outputs": [
        {
          "internalType": "uint256",
          "name": "",
          "type": "uint256"
        }
      ],
      "stateMutability": "view",
      "type": "function"
    },
    {
      "inputs": [],
      "name": "weeklySpent",
      "outputs": [
        {
          "internalType": "uint256",
          "name": "",
          "type": "uint256"
        }
      ],
      "stateMutability": "view",
      "type": "function"
    },
    {
      "stateMutability": "payable",
      "type": "receive"
    }
  ],
  "bytecode": "0x6080604052600a6004553480156200001657600080fd5b506040516200468f3803806200468f833981016040819052620000399162000425565b600160005581518160328211156200008a5760405162461bcd60e51b815260206004820152600f60248201526e546f6f206d616e79206f776e65727360881b60448201526064015b60405180910390fd5b81811115620000eb5760405162461bcd60e51b815260206004820152602660248201527f5265717569726564205369676e61747572657320657863656564206f776e65726044820152650818dbdd5b9d60d21b606482015260840162000081565b806000036200013d5760405162461bcd60e51b815260206004820152601760248201527f72657175697265642063616e6e6f74206265207a65726f000000000000000000604482015260640162000081565b816000036200018f5760405162461bcd60e51b815260206004820152601a60248201527f4f776e657220636f756e742063616e6e6f74206265207a65726f000000000000604482015260640162000081565b8351600003620001d55760405162461bcd60e51b815260206004820152601060248201526f4e6f742076616c6964206f776e65727360801b604482015260640162000081565b60005b8451811015620003455760006001600160a01b0316858281518110620002025762000202620004ff565b60200260200101516001600160a01b031603620002625760405162461bcd60e51b815260206004820152601560248201527f496e76616c6964206f776e657220616464726573730000000000000000000000604482015260640162000081565b600260008683815181106200027b576200027b620004ff565b6020908102919091018101516001600160a01b031682528101919091526040016000205460ff1615620002e35760405162461bcd60e51b815260206004820152600f60248201526e223ab83634b1b0ba329037bbb732b960891b604482015260640162000081565b600160026000878481518110620002fe57620002fe620004ff565b6020908102919091018101516001600160a01b03168252810191909152604001600020805460ff1916911515919091179055806200033c8162000515565b915050620001d8565b5083516200035b90600190602087019062000371565b50505060035550426009819055600a556200053d565b828054828255906000526020600020908101928215620003c9579160200282015b82811115620003c957825182546001600160a01b0319166001600160a01b0390911617825560209092019160019091019062000392565b50620003d7929150620003db565b5090565b5b80821115620003d75760008155600101620003dc565b634e487b7160e01b600052604160045260246000fd5b80516001600160a01b03811681146200042057600080fd5b919050565b600080604083850312156200043957600080fd5b82516001600160401b03808211156200045157600080fd5b818501915085601f8301126200046657600080fd5b81516020828211156200047d576200047d620003f2565b8160051b604051601f19603f83011681018181108682111715620004a557620004a5620003f2565b604052928352818301935084810182019289841115620004c457600080fd5b948201945b83861015620004ed57620004dd8662000408565b85529482019493820193620004c9565b97909101519698969750505050505050565b634e487b7160e01b600052603260045260246000fd5b6000600182016200053657634e487b7160e01b600052601160045260246000fd5b5060010190565b614142806200054d6000396000f3fe60806040526004361061028c5760003560e01c8063861a68d61161015a578063b77bf600116100c1578063dc8452cd1161007a578063dc8452cd14610863578063e20056e614610879578063e36f8dc514610899578063ee22610b146108b9578063f560c734146108d9578063f5c4d988146108f9576102ce565b8063b77bf600146107c2578063ba51a6df146107d8578063c01a8c84146107f8578063c1c13b2f14610818578063c64274741461082e578063d74f8edd1461084e576102ce565b8063a526d83b11610113578063a526d83b14610709578063a8abe69a14610729578063affed0e014610756578063b20d30a91461076c578063b4a7a1871461078c578063b5dc40c3146107a2576102ce565b8063861a68d6146106405780638b51d13f146106565780639303b16f146106835780639ace38c2146106a35780639d8960b5146106d4578063a0e67e2b146106f4576102ce565b8063435720a3116101fe57806371404156116101b7578063714041561461058257806371e132d8146105a257806378446bc1146105c2578063784547a7146105d857806382b0d25c1461060b5780638456cb591461062b576102ce565b8063435720a3146104d057806354741525146104e55780635531e08d146105055780635c975abb1461053257806367eeba0c1461054c5780637065cb4814610562576102ce565b8063173825d911610250578063173825d9146103de57806320ea8d86146104005780632f54bf6e1461042057806333ea3dc8146104505780633411c81c146104805780633f4ba83a146104bb576102ce565b8063025e7c27146103055780630665f04b146103425780630bc6b89c146103645780630c68ba211461038857806316284f21146103c8576102ce565b366102ce576040805134815242602082015233917f90890809c654f11d6e72a28fa60149770a0d11ec6c92319d6ceb2bb0a4ea1a1591015b60405180910390a2005b6040805134815242602082015233917f90890809c654f11d6e72a28fa60149770a0d11ec6c92319d6ceb2bb0a4ea1a1591016102c4565b34801561031157600080fd5b506103256103203660046138b6565b610919565b6040516001600160a01b0390911681526020015b60405180910390f35b34801561034e57600080fd5b50610357610943565b6040516103399190613913565b34801561037057600080fd5b5061037a60075481565b604051908152602001610339565b34801561039457600080fd5b506103b86103a3366004613949565b600d6020526000908152604090205460ff1681565b6040519015158152602001610339565b3480156103d457600080fd5b5061037a60085481565b3480156103ea57600080fd5b506103fe6103f9366004613949565b6109a5565b005b34801561040c57600080fd5b506103fe61041b3660046138b6565b610c81565b34801561042c57600080fd5b506103b861043b366004613949565b60026020526000908152604090205460ff1681565b34801561045c57600080fd5b5061047061046b3660046138b6565b610e9b565b60405161033994939291906139b4565b34801561048c57600080fd5b506103b861049b3660046139ee565b601260209081526000928352604080842090915290825290205460ff1681565b3480156104c757600080fd5b506103fe610f73565b3480156104dc57600080fd5b506103fe610fe7565b3480156104f157600080fd5b5061037a610500366004613a2a565b61107e565b34801561051157600080fd5b5061037a6105203660046138b6565b60136020526000908152604090205481565b34801561053e57600080fd5b50600b546103b89060ff1681565b34801561055857600080fd5b5061037a60055481565b34801561056e57600080fd5b506103fe61057d366004613949565b61111f565b34801561058e57600080fd5b506103fe61059d366004613949565b61139f565b3480156105ae57600080fd5b506103fe6105bd3660046138b6565b61158b565b3480156105ce57600080fd5b5061037a60045481565b3480156105e457600080fd5b506103b86105f33660046138b6565b60035460009182526013602052604090912054101590565b34801561061757600080fd5b506103fe610626366004613abf565b6115e2565b34801561063757600080fd5b506103fe611955565b34801561064c57600080fd5b5061037a60065481565b34801561066257600080fd5b5061037a6106713660046138b6565b60009081526013602052604090205490565b34801561068f57600080fd5b506103fe61069e3660046138b6565b6119c7565b3480156106af57600080fd5b506106c36106be3660046138b6565b611a6a565b604051610339959493929190613b55565b3480156106e057600080fd5b506103fe6106ef366004613abf565b611b2f565b34801561070057600080fd5b506103576120cc565b34801561071557600080fd5b506103fe610724366004613949565b61212c565b34801561073557600080fd5b50610749610744366004613b90565b6122a9565b6040516103399190613c06565b34801561076257600080fd5b5061037a600c5481565b34801561077857600080fd5b506103fe6107873660046138b6565b6124f0565b34801561079857600080fd5b5061037a60095481565b3480156107ae57600080fd5b506103576107bd3660046138b6565b612547565b3480156107ce57600080fd5b5061037a60115481565b3480156107e457600080fd5b506103fe6107f33660046138b6565b6126f2565b34801561080457600080fd5b506103fe6108133660046138b6565b61288c565b34801561082457600080fd5b5061037a600a5481565b34801561083a57600080fd5b5061037a610849366004613c19565b612a96565b34801561085a57600080fd5b5061037a603281565b34801561086f57600080fd5b5061037a60035481565b34801561088557600080fd5b506103fe610894366004613cc8565b612cd7565b3480156108a557600080fd5b5061037a6108b43660046138b6565b612f36565b3480156108c557600080fd5b506103fe6108d43660046138b6565b612f57565b3480156108e557600080fd5b506103256108f43660046138b6565b613422565b34801561090557600080fd5b506103fe610914366004613cf2565b613432565b6001818154811061092957600080fd5b6000918252602090912001546001600160a01b0316905081565b6060600e80548060200260200160405190810160405280929190818152602001828054801561099b57602002820191906000526020600020905b81546001600160a01b0316815260019091019060200180831161097d575b5050505050905090565b3360009081526002602052604090205460ff166109dd5760405162461bcd60e51b81526004016109d490613d90565b60405180910390fd5b600b5460ff1615610a005760405162461bcd60e51b81526004016109d490613db8565b6001600160a01b038116610a265760405162461bcd60e51b81526004016109d490613de2565b6001600160a01b03811660009081526002602052604090205460ff16610a865760405162461bcd60e51b81526020600482015260156024820152742737ba1030b71032bc34b9ba34b7339037bbb732b960591b60448201526064016109d4565b60035460018054610a979190613e21565b1015610af95760405162461bcd60e51b815260206004820152602b60248201527f43616e6e6f742072656d6f76653a20776f756c6420696e76616c69646174652060448201526a1c995c5d5a5c995b595b9d60aa1b60648201526084016109d4565b6000805b600154811015610b5857826001600160a01b031660018281548110610b2457610b24613e34565b6000918252602090912001546001600160a01b031603610b4657809150610b58565b80610b5081613e4a565b915050610afd565b50805b60018054610b699190613e21565b811015610bf3576001610b7c8282613e63565b81548110610b8c57610b8c613e34565b600091825260209091200154600180546001600160a01b039092169183908110610bb857610bb8613e34565b600091825260209091200180546001600160a01b0319166001600160a01b039290921691909117905580610beb81613e4a565b915050610b5b565b506001805480610c0557610c05613e76565b60008281526020808220600019908401810180546001600160a01b03191690559092019092556001600160a01b03841680835260028252604092839020805460ff1916905591514281523392917ffcb34cb6b01e1c4e97f49e6aea74296f1ea103dd67e4c0a83e89da1fddba154f910160405180910390a35050565b3360009081526002602052604090205460ff16610cb05760405162461bcd60e51b81526004016109d490613d90565b600b5460ff1615610cd35760405162461bcd60e51b81526004016109d490613db8565b6000818152600f60205260409020546001600160a01b0316610d375760405162461bcd60e51b815260206004820152601a60248201527f5472616e73616374696f6e20646f6573206e6f7420657869737400000000000060448201526064016109d4565b6000818152600f602052604090206003015460ff1615610d995760405162461bcd60e51b815260206004820152601c60248201527f5472616e73616374696f6e20616c72656164792065786563757465640000000060448201526064016109d4565b600081815260126020908152604080832033845290915290205460ff16610e025760405162461bcd60e51b815260206004820152601960248201527f4e6f20636f6e6669726d6174696f6e20746f207265766f6b650000000000000060448201526064016109d4565b60008181526012602090815260408083203384528252808320805460ff1916905583835260139091528120805460019290610e3e908490613e21565b909155505060008181526013602052604090819020549051339183917fbac6ba6fb255a87cc84a397ae5a2c9679caa7199ea83085b922822ba2ee1a80191610e90914290918252602082015260400190565b60405180910390a350565b6000818152600f602052604081208054600182015460038301546002840180548695606095879591946001600160a01b0390911693919260ff909116908290610ee390613e8c565b80601f0160208091040260200160405190810160405280929190818152602001828054610f0f90613e8c565b8015610f5c5780601f10610f3157610100808354040283529160200191610f5c565b820191906000526020600020905b815481529060010190602001808311610f3f57829003601f168201915b505050505091509450945094509450509193509193565b3360009081526002602052604090205460ff16610fa25760405162461bcd60e51b81526004016109d490613d90565b600b805460ff1916905560405142815233906000907fc4dee5cbe232fa7ed86c419515ec2588398aeea71e0341a3115fd37521c5005a906020015b60405180910390a3565b600b5460ff166110305760405162461bcd60e51b815260206004820152601460248201527315d85b1b195d081a5cc81b9bdd081c185d5cd95960621b60448201526064016109d4565b336000908152600d602052604090205460ff16610fa25760405162461bcd60e51b815260206004820152600c60248201526b2737ba1033bab0b93234b0b760a11b60448201526064016109d4565b6000805b601054811015611117576000601082815481106110a1576110a1613e34565b906000526020600020015490508480156110cd57506000818152600f602052604090206003015460ff16155b806110f157508380156110f157506000818152600f602052604090206003015460ff165b15611104578261110081613e4a565b9350505b508061110f81613e4a565b915050611082565b505b92915050565b3360009081526002602052604090205460ff1661114e5760405162461bcd60e51b81526004016109d490613d90565b6001805461115b91613e63565b60035460328211156111a15760405162461bcd60e51b815260206004820152600f60248201526e546f6f206d616e79206f776e65727360881b60448201526064016109d4565b818111156111c15760405162461bcd60e51b81526004016109d490613ec6565b8060000361120b5760405162461bcd60e51b815260206004820152601760248201527672657175697265642063616e6e6f74206265207a65726f60481b60448201526064016109d4565b8160000361125b5760405162461bcd60e51b815260206004820152601a60248201527f4f776e657220636f756e742063616e6e6f74206265207a65726f00000000000060448201526064016109d4565b600b5460ff161561127e5760405162461bcd60e51b81526004016109d490613db8565b6001600160a01b03831660009081526002602052604090205460ff16156112de5760405162461bcd60e51b81526020600482015260146024820152734f776e657220616c72656164792065786973747360601b60448201526064016109d4565b6001600160a01b0383166113045760405162461bcd60e51b81526004016109d490613de2565b6001805480820182557fb10e2d527612073b26eecdfd717e6a320cf44b4afac2b0732d9fcbe2b7fa0cf60180546001600160a01b0319166001600160a01b038616908117909155600081815260026020908152604091829020805460ff19169094179093555142815233927f47926a2f9b4655210a5cf260afb019ddf14f42524759c6b32a21d1b59c498474910160405180910390a3505050565b3360009081526002602052604090205460ff166113ce5760405162461bcd60e51b81526004016109d490613d90565b6001600160a01b0381166000908152600d602052604090205460ff166114275760405162461bcd60e51b815260206004820152600e60248201526d2737ba10309033bab0b93234b0b760911b60448201526064016109d4565b6001600160a01b0381166000908152600d60205260408120805460ff191690555b600e5481101561154d57816001600160a01b0316600e828154811061146f5761146f613e34565b6000918252602090912001546001600160a01b03160361153b57600e805461149990600190613e21565b815481106114a9576114a9613e34565b600091825260209091200154600e80546001600160a01b0390921691839081106114d5576114d5613e34565b9060005260206000200160006101000a8154816001600160a01b0302191690836001600160a01b03160217905550600e80548061151457611514613e76565b600082815260209020810160001990810180546001600160a01b031916905501905561154d565b8061154581613e4a565b915050611448565b5060405142815233906001600160a01b038316907f3b474d5aea4286914f107a200bc4aefdff380346cf5f4b744aa13f5e7de416ac90602001610e90565b3360009081526002602052604090205460ff166115ba5760405162461bcd60e51b81526004016109d490613d90565b600b5460ff16156115dd5760405162461bcd60e51b81526004016109d490613db8565b600655565b3360009081526002602052604090205460ff166116115760405162461bcd60e51b81526004016109d490613d90565b600b5460ff16156116345760405162461bcd60e51b81526004016109d490613db8565b60008151116116795760405162461bcd60e51b8152602060048201526011602482015270139bdd0818481d985b1a5908125b9c1d5d607a1b60448201526064016109d4565b6032815111156116ba5760405162461bcd60e51b815260206004820152600c60248201526b546f6f206d616e792074787360a01b60448201526064016109d4565b60005b81518110156117e3576011548282815181106116db576116db613e34565b6020026020010151106117295760405162461bcd60e51b8152602060048201526016602482015275125b9d985b1a59081d1c985b9cd858dd1a5bdb881a5960521b60448201526064016109d4565b6000611736826001613e63565b90505b82518110156117d05782818151811061175457611754613e34565b602002602001015183838151811061176e5761176e613e34565b6020026020010151036117be5760405162461bcd60e51b8152602060048201526018602482015277111d5c1b1a58d85d19481d1c985b9cd858dd1a5bdb881a5960421b60448201526064016109d4565b806117c881613e4a565b915050611739565b50806117db81613e4a565b9150506116bd565b5060005b815181101561195157600082828151811061180457611804613e34565b6020908102919091018101516000818152600f9092526040909120549091506001600160a01b0316158061184957506000818152600f602052604090206003015460ff165b8061186d5750600081815260126020908152604080832033845290915290205460ff165b806118965750600480546000838152600f60205260409020909101546118939190613e63565b42105b156118a1575061193f565b60008181526012602090815260408083203384528252808320805460ff19166001908117909155848452601390925282208054919290916118e3908490613e63565b909155505060008181526013602052604090819020549051339183917f34e2fab8b315aef86a5b331ef280ad5cdbb40d6081b10b7f29d68dd69ef3898f91611935914290918252602082015260400190565b60405180910390a3505b8061194981613e4a565b9150506117e7565b5050565b3360009081526002602052604090205460ff166119845760405162461bcd60e51b81526004016109d490613d90565b600b805460ff191660019081179091556040514281523391907fc4dee5cbe232fa7ed86c419515ec2588398aeea71e0341a3115fd37521c5005a90602001610fdd565b3360009081526002602052604090205460ff166119f65760405162461bcd60e51b81526004016109d490613d90565b600b5460ff1615611a195760405162461bcd60e51b81526004016109d490613db8565b60048054908290556040805182815260208101849052338183015242606082015290517f3f09f55b0f159ed2f2e9fd8ba52a63b032275f6f9462a449b94cd30e6c49f73c9181900360800190a15050565b600f602052600090815260409020805460018201546002830180546001600160a01b03909316939192611a9c90613e8c565b80601f0160208091040260200160405190810160405280929190818152602001828054611ac890613e8c565b8015611b155780601f10611aea57610100808354040283529160200191611b15565b820191906000526020600020905b815481529060010190602001808311611af857829003601f168201915b505050506003830154600490930154919260ff1691905085565b3360009081526002602052604090205460ff16611b5e5760405162461bcd60e51b81526004016109d490613d90565b600b5460ff1615611b815760405162461bcd60e51b81526004016109d490613db8565b611b896137d0565b611b916137fa565b6000815111611bd65760405162461bcd60e51b8152602060048201526011602482015270139bdd0818481d985b1a5908125b9c1d5d607a1b60448201526064016109d4565b603281511115611c175760405162461bcd60e51b815260206004820152600c60248201526b546f6f206d616e792074787360a01b60448201526064016109d4565b60005b8151811015611d4057601154828281518110611c3857611c38613e34565b602002602001015110611c865760405162461bcd60e51b8152602060048201526016602482015275125b9d985b1a59081d1c985b9cd858dd1a5bdb881a5960521b60448201526064016109d4565b6000611c93826001613e63565b90505b8251811015611d2d57828181518110611cb157611cb1613e34565b6020026020010151838381518110611ccb57611ccb613e34565b602002602001015103611d1b5760405162461bcd60e51b8152602060048201526018602482015277111d5c1b1a58d85d19481d1c985b9cd858dd1a5bdb881a5960421b60448201526064016109d4565b80611d2581613e4a565b915050611c96565b5080611d3881613e4a565b915050611c1a565b506000805b8251811015612078576000838281518110611d6257611d62613e34565b6020908102919091018101516000818152600f90925260408220600181015460029091018054929450909291611d9790613e8c565b80601f0160208091040260200160405190810160405280929190818152602001828054611dc390613e8c565b8015611e105780601f10611de557610100808354040283529160200191611e10565b820191906000526020600020905b815481529060010190602001808311611df357829003601f168201915b5050505050905060005a6000858152600f60205260409020549091506001600160a01b03161580611e5257506000848152600f602052604090206003015460ff165b80611e6c5750600354600085815260136020526040902054105b80611e85575060055483600754611e839190613e63565b115b80611e9e575060065483600854611e9c9190613e63565b115b80611ec75750600480546000868152600f6020526040902090910154611ec49190613e63565b42105b15611ed55750505050612066565b6000848152600f602052604080822060038101805460ff191660011790555490516001600160a01b039091169190819083908790611f14908890613f0c565b60006040518083038185875af1925050503d8060008114611f51576040519150601f19603f3d011682016040523d82523d6000602084013e611f56565b606091505b509150915060005a611f689086613e21565b9050821561201457611f7b60018b613e63565b99508660076000828254611f8f9190613e63565b925050819055508660086000828254611fa89190613e63565b9091555050600c8054906000611fbd83613e4a565b9190505550821515846001600160a01b0316897f0a69d76b20deeaf86d9b2f30ddecc5bd19ade27a8d8c1175df7c82fcd1a4b4848a86338742604051612007959493929190613f28565b60405180910390a461205d565b836001600160a01b0316887f3a7cc33bcb259c09a544067c03708e35906046edcbc224fa51769a75f8f09071898533426040516120549493929190613f67565b60405180910390a35b50505050505050505b8061207081613e4a565b915050611d45565b50336001600160a01b03167f0a911e67922112c49ff13440bcaf06c73f0922418f29d65435ed368278ad602a8383426040516120b693929190613f9c565b60405180910390a2506120c96001600055565b50565b6060600180548060200260200160405190810160405280929190818152602001828054801561099b576020028201919060005260206000209081546001600160a01b0316815260019091019060200180831161097d575050505050905090565b3360009081526002602052604090205460ff1661215b5760405162461bcd60e51b81526004016109d490613d90565b6001600160a01b0381166121b15760405162461bcd60e51b815260206004820152601860248201527f496e76616c696420677561726469616e2061646472657373000000000000000060448201526064016109d4565b6001600160a01b0381166000908152600d602052604090205460ff161561220f5760405162461bcd60e51b815260206004820152601260248201527120b63932b0b23c90309033bab0b93234b0b760711b60448201526064016109d4565b6001600160a01b0381166000818152600d6020526040808220805460ff19166001908117909155600e805491820181559092527fbb7b4a454dc3493923482f07822329ed19e8244eff582cc204f8554c3620c3fd90910180546001600160a01b03191683179055513391907f6d0391926fd0fcb9e582cc3f9b1d2302bfd0866212cc067d5b137352a23a41bc90610e909042815260200190565b6010546060908411156122f75760405162461bcd60e51b815260206004820152601660248201527524b73b30b634b21013ba3793903830b930b6b2ba32b960511b60448201526064016109d4565b8385106123465760405162461bcd60e51b815260206004820152601d60248201527f2766726f6d27206d757374206265206c657373207468616e2027746f2700000060448201526064016109d4565b60006123528686613e21565b67ffffffffffffffff81111561236a5761236a613a54565b604051908082528060200260200182016040528015612393578160200160208202803683370190505b5090506000865b8681101561244b576000601082815481106123b7576123b7613e34565b906000526020600020015490508680156123e357506000818152600f602052604090206003015460ff16155b80612407575085801561240757506000818152600f602052604090206003015460ff165b15612438578084848151811061241f5761241f613e34565b60209081029190910101528261243481613e4a565b9350505b508061244381613e4a565b91505061239a565b508067ffffffffffffffff81111561246557612465613a54565b60405190808252806020026020018201604052801561248e578160200160208202803683370190505b50925060005b818110156124e5578281815181106124ae576124ae613e34565b60200260200101518482815181106124c8576124c8613e34565b6020908102919091010152806124dd81613e4a565b915050612494565b505050949350505050565b3360009081526002602052604090205460ff1661251f5760405162461bcd60e51b81526004016109d490613d90565b600b5460ff16156125425760405162461bcd60e51b81526004016109d490613db8565b600555565b60606000805b6001548110156125c9576000848152601260205260408120600180549192918490811061257c5761257c613e34565b60009182526020808320909101546001600160a01b0316835282019290925260400190205460ff16156125b757816125b381613e4a565b9250505b806125c181613e4a565b91505061254d565b508067ffffffffffffffff8111156125e3576125e3613a54565b60405190808252806020026020018201604052801561260c578160200160208202803683370190505b5091506000805b6001548110156126ea576000858152601260205260408120600180549192918490811061264257612642613e34565b60009182526020808320909101546001600160a01b0316835282019290925260400190205460ff16156126d8576001818154811061268257612682613e34565b9060005260206000200160009054906101000a90046001600160a01b03168483815181106126b2576126b2613e34565b6001600160a01b0390921660209283029190910190910152816126d481613e4a565b9250505b806126e281613e4a565b915050612613565b505050919050565b3360009081526002602052604090205460ff166127215760405162461bcd60e51b81526004016109d490613d90565b6001548160328211156127685760405162461bcd60e51b815260206004820152600f60248201526e546f6f206d616e79206f776e65727360881b60448201526064016109d4565b818111156127885760405162461bcd60e51b81526004016109d490613ec6565b806000036127d25760405162461bcd60e51b815260206004820152601760248201527672657175697265642063616e6e6f74206265207a65726f60481b60448201526064016109d4565b816000036128225760405162461bcd60e51b815260206004820152601a60248201527f4f776e657220636f756e742063616e6e6f74206265207a65726f00000000000060448201526064016109d4565b600b5460ff16156128455760405162461bcd60e51b81526004016109d490613db8565b60038054908490556040514281523390859083907fac216dd2620875086ca9a434bc085120d2b9f0d2f78d27acca78aeae26407b0d9060200160405180910390a450505050565b3360009081526002602052604090205460ff166128bb5760405162461bcd60e51b81526004016109d490613d90565b600b5460ff16156128de5760405162461bcd60e51b81526004016109d490613db8565b6000818152600f60205260409020546001600160a01b03166129425760405162461bcd60e51b815260206004820152601a60248201527f5472616e73616374696f6e20646f6573206e6f7420657869737400000000000060448201526064016109d4565b6000818152600f602052604090206003015460ff16156129a45760405162461bcd60e51b815260206004820152601c60248201527f5472616e73616374696f6e20616c72656164792065786563757465640000000060448201526064016109d4565b600081815260126020908152604080832033845290915290205460ff1615612a025760405162461bcd60e51b8152602060048201526011602482015270105b1c9958591e4818dbdb999a5c9b5959607a1b60448201526064016109d4565b60008181526012602090815260408083203384528252808320805460ff1916600190811790915584845260139092528220805491929091612a44908490613e63565b909155505060008181526013602052604090819020549051339183917f34e2fab8b315aef86a5b331ef280ad5cdbb40d6081b10b7f29d68dd69ef3898f91610e90914290918252602082015260400190565b3360009081526002602052604081205460ff16612ac55760405162461bcd60e51b81526004016109d490613d90565b600b5460ff1615612ae85760405162461bcd60e51b81526004016109d490613db8565b6001600160a01b038416612b345760405162461bcd60e51b815260206004820152601360248201527224b73b30b634b2103232b9ba34b730ba34b7b760691b60448201526064016109d4565b506011546040805160a0810182526001600160a01b0386811682526020808301878152838501878152600060608601819052426080870152878152600f90935294909120835181546001600160a01b031916931692909217825551600182015591519091906002820190612ba89082614010565b50606082015160038201805491151560ff19928316179055608090920151600490910155600082815260126020908152604080832033845282528083208054909416600190811790945584835260139091528120919091556011805491612c0e83613e4a565b9091555050601080546001810182556000919091527f1b6847dc741a1b0cd08d278845f9d819d87b734759afb55fe2de5cb82a9ae6720181905560405133906001600160a01b0386169083907f4ea4f06b882d1ec6106bfb5063bf4a4106d36364f4e911ac75aac2268b836fec90612c8b908890889042906140d0565b60405180910390a46040805160018152426020820152339183917f34e2fab8b315aef86a5b331ef280ad5cdbb40d6081b10b7f29d68dd69ef3898f910160405180910390a39392505050565b3360009081526002602052604090205460ff16612d065760405162461bcd60e51b81526004016109d490613d90565b600b5460ff1615612d295760405162461bcd60e51b81526004016109d490613db8565b6001600160a01b038216612d4f5760405162461bcd60e51b81526004016109d490613de2565b6001600160a01b038116612d755760405162461bcd60e51b81526004016109d490613de2565b6001600160a01b03821660009081526002602052604090205460ff16612dd45760405162461bcd60e51b815260206004820152601460248201527313dddb995c88191bd95cc81b9bdd08195e1a5cdd60621b60448201526064016109d4565b6001600160a01b03811660009081526002602052604090205460ff1615612e335760405162461bcd60e51b81526020600482015260136024820152721bdddb995c88185b1c9958591e48195e1a5cdd606a1b60448201526064016109d4565b6000805b600154811015612e9257836001600160a01b031660018281548110612e5e57612e5e613e34565b6000918252602090912001546001600160a01b031603612e8057809150612e92565b80612e8a81613e4a565b915050612e37565b508160018281548110612ea757612ea7613e34565b600091825260208083209190910180546001600160a01b0319166001600160a01b03948516179055858316808352600282526040808420805460ff1990811690915594871680855293819020805490951660011790945592514281523393917f7a8a20cf5bb00bfb2a7575b49e270785be4cc6076c67e31bc99d65ea57855c96910160405180910390a4505050565b60108181548110612f4657600080fd5b600091825260209091200154905081565b3360009081526002602052604090205460ff16612f865760405162461bcd60e51b81526004016109d490613d90565b600b5460ff1615612fa95760405162461bcd60e51b81526004016109d490613db8565b612fb16137d0565b612fb96137fa565b6000818152600f60205260409020546001600160a01b031661301d5760405162461bcd60e51b815260206004820152601760248201527f4e6f7420612076616c6964207472616e73616374696f6e00000000000000000060448201526064016109d4565b6000818152600f602052604090206003015460ff161561307f5760405162461bcd60e51b815260206004820152601c60248201527f5472616e73616374696f6e20416c72656164792065786563757465640000000060448201526064016109d4565b60035460008281526013602052604090205410156130df5760405162461bcd60e51b815260206004820152601860248201527f4e6f7420656e6f75676820636f6e6669726d6174696f6e73000000000000000060448201526064016109d4565b600480546000838152600f60205260409020909101546130ff9190613e63565b4210156131465760405162461bcd60e51b8152602060048201526015602482015274151a5b59481b1bd8dac81b9bdd08195e1c1a5c9959605a1b60448201526064016109d4565b6000818152600f6020526040812060038101805460ff19166001908117909155815490820154600290920180546001600160a01b03909216939161318990613e8c565b80601f01602080910402602001604051908101604052809291908181526020018280546131b590613e8c565b80156132025780601f106131d757610100808354040283529160200191613202565b820191906000526020600020905b8154815290600101906020018083116131e557829003601f168201915b5050505050905060005a90506005548360075461321f9190613e63565b11156132635760405162461bcd60e51b8152602060048201526013602482015272115e18d959591cc819185a5b1e481b1a5b5a5d606a1b60448201526064016109d4565b600654836008546132749190613e63565b11156132b95760405162461bcd60e51b8152602060048201526014602482015273115e18d959591cc81dd9595adb1e481b1a5b5a5d60621b60448201526064016109d4565b600080856001600160a01b031685856040516132d59190613f0c565b60006040518083038185875af1925050503d8060008114613312576040519150601f19603f3d011682016040523d82523d6000602084013e613317565b606091505b509150915060005a6133299085613e21565b905082156133c85785600760008282546133439190613e63565b92505081905550856008600082825461335c9190613e63565b9091555050600c805490600061337183613e4a565b9190505550821515876001600160a01b0316897f0a69d76b20deeaf86d9b2f30ddecc5bd19ade27a8d8c1175df7c82fcd1a4b48489863387426040516133bb959493929190613f28565b60405180910390a4613411565b866001600160a01b0316887f3a7cc33bcb259c09a544067c03708e35906046edcbc224fa51769a75f8f09071888533426040516134089493929190613f67565b60405180910390a35b505050505050506120c96001600055565b600e818154811061092957600080fd5b600b5460ff1661347b5760405162461bcd60e51b815260206004820152601460248201527315d85b1b195d081a5cc81b9bdd081c185d5cd95960621b60448201526064016109d4565b336000908152600d602052604090205460ff166134c95760405162461bcd60e51b815260206004820152600c60248201526b2737ba1033bab0b93234b0b760a11b60448201526064016109d4565b600082511161350d5760405162461bcd60e51b815260206004820152601060248201526f4f776e6572206c69737420656d70747960801b60448201526064016109d4565b60005b825181101561365e5760006001600160a01b031683828151811061353657613536613e34565b60200260200101516001600160a01b03160361358d5760405162461bcd60e51b81526020600482015260166024820152755a65726f206164647265737320696e206f776e65727360501b60448201526064016109d4565b600061359a826001613e63565b90505b835181101561364b578381815181106135b8576135b8613e34565b60200260200101516001600160a01b03168483815181106135db576135db613e34565b60200260200101516001600160a01b0316036136395760405162461bcd60e51b815260206004820152601760248201527f4475706c6963617465206f776e6572206164647265737300000000000000000060448201526064016109d4565b8061364381613e4a565b91505061359d565b508061365681613e4a565b915050613510565b5060005b6001548110156136cb576000600260006001848154811061368557613685613e34565b6000918252602080832091909101546001600160a01b031683528201929092526040019020805460ff1916911515919091179055806136c381613e4a565b915050613662565b5081516136df90600190602085019061383c565b5060005b82518110156137485760016002600085848151811061370457613704613e34565b6020908102919091018101516001600160a01b03168252810191909152604001600020805460ff19169115159190911790558061374081613e4a565b9150506136e3565b5060038190556040514281523390829081907fac216dd2620875086ca9a434bc085120d2b9f0d2f78d27acca78aeae26407b0d9060200160405180910390a4336001600160a01b03167f9355e704df2cafe23c035cd828b1300ac535c51198ae36b28a7e546ce4ed5e678383426040516137c4939291906140f9565b60405180910390a25050565b6002600054036137f357604051633ee5aeb560e01b815260040160405180910390fd5b6002600055565b60095461380a9062015180613e63565b421061381a576000600755426009555b600a5461382a9062093a80613e63565b421061383a57600060085542600a555b565b828054828255906000526020600020908101928215613891579160200282015b8281111561389157825182546001600160a01b0319166001600160a01b0390911617825560209092019160019091019061385c565b5061389d9291506138a1565b5090565b5b8082111561389d57600081556001016138a2565b6000602082840312156138c857600080fd5b5035919050565b600081518084526020808501945080840160005b838110156139085781516001600160a01b0316875295820195908201906001016138e3565b509495945050505050565b60208152600061392660208301846138cf565b9392505050565b80356001600160a01b038116811461394457600080fd5b919050565b60006020828403121561395b57600080fd5b6139268261392d565b60005b8381101561397f578181015183820152602001613967565b50506000910152565b600081518084526139a0816020860160208601613964565b601f01601f19169290920160200192915050565b60018060a01b03851681528360208201526080604082015260006139db6080830185613988565b9050821515606083015295945050505050565b60008060408385031215613a0157600080fd5b82359150613a116020840161392d565b90509250929050565b8035801515811461394457600080fd5b60008060408385031215613a3d57600080fd5b613a4683613a1a565b9150613a1160208401613a1a565b634e487b7160e01b600052604160045260246000fd5b604051601f8201601f1916810167ffffffffffffffff81118282101715613a9357613a93613a54565b604052919050565b600067ffffffffffffffff821115613ab557613ab5613a54565b5060051b60200190565b60006020808385031215613ad257600080fd5b823567ffffffffffffffff811115613ae957600080fd5b8301601f81018513613afa57600080fd5b8035613b0d613b0882613a9b565b613a6a565b81815260059190911b82018301908381019087831115613b2c57600080fd5b928401925b82841015613b4a57833582529284019290840190613b31565b979650505050505050565b60018060a01b038616815284602082015260a060408201526000613b7c60a0830186613988565b931515606083015250608001529392505050565b60008060008060808587031215613ba657600080fd5b8435935060208501359250613bbd60408601613a1a565b9150613bcb60608601613a1a565b905092959194509250565b600081518084526020808501945080840160005b8381101561390857815187529582019590820190600101613bea565b6020815260006139266020830184613bd6565b600080600060608486031215613c2e57600080fd5b613c378461392d565b92506020808501359250604085013567ffffffffffffffff80821115613c5c57600080fd5b818701915087601f830112613c7057600080fd5b813581811115613c8257613c82613a54565b613c94601f8201601f19168501613a6a565b91508082528884828501011115613caa57600080fd5b80848401858401376000848284010152508093505050509250925092565b60008060408385031215613cdb57600080fd5b613ce48361392d565b9150613a116020840161392d565b60008060408385031215613d0557600080fd5b823567ffffffffffffffff811115613d1c57600080fd5b8301601f81018513613d2d57600080fd5b80356020613d3d613b0883613a9b565b82815260059290921b83018101918181019088841115613d5c57600080fd5b938201935b83851015613d8157613d728561392d565b82529382019390820190613d61565b98969091013596505050505050565b6020808252600e908201526d139bdd08105d5d1a1bdc9a5e995960921b604082015260600190565b60208082526010908201526f15d85b1b195d081a5cc81c185d5cd95960821b604082015260600190565b6020808252600f908201526e496e76616c6964206164647265737360881b604082015260600190565b634e487b7160e01b600052601160045260246000fd5b8181038181111561111957611119613e0b565b634e487b7160e01b600052603260045260246000fd5b600060018201613e5c57613e5c613e0b565b5060010190565b8082018082111561111957611119613e0b565b634e487b7160e01b600052603160045260246000fd5b600181811c90821680613ea057607f821691505b602082108103613ec057634e487b7160e01b600052602260045260246000fd5b50919050565b60208082526026908201527f5265717569726564205369676e61747572657320657863656564206f776e65726040820152650818dbdd5b9d60d21b606082015260800190565b60008251613f1e818460208701613964565b9190910192915050565b85815260a060208201526000613f4160a0830187613988565b6001600160a01b0395909516604083015250606081019290925260809091015292915050565b848152608060208201526000613f806080830186613988565b6001600160a01b03949094166040830152506060015292915050565b606081526000613faf6060830186613bd6565b60208301949094525060400152919050565b601f82111561400b57600081815260208120601f850160051c81016020861015613fe85750805b601f850160051c820191505b8181101561400757828155600101613ff4565b5050505b505050565b815167ffffffffffffffff81111561402a5761402a613a54565b61403e816140388454613e8c565b84613fc1565b602080601f831160018114614073576000841561405b5750858301515b600019600386901b1c1916600185901b178555614007565b600085815260208120601f198616915b828110156140a257888601518255948401946001909101908401614083565b50858210156140c05787850151600019600388901b60f8161c191681555b5050505050600190811b01905550565b8381526060602082015260006140e96060830185613988565b9050826040830152949350505050565b606081526000613faf60608301866138cf56fea26469706673582212209f1933171b8d99384f53790e2bb0bc9baedbae73b4c9cfc912eca986612c31c364736f6c63430008140033",
  "linkReferences": {},
  "deployedLinkReferences": {}
}